:020000040000FA
:020000000528D1
:040002000034003492
:080008004B2883160313870146
:100010008801850183160030980019309900031774
:100020008711831203139030980083160313A030B6
:100030008B00833081008316031788018316031712
:10004000890183120313850187018801A201A3019D
:10005000A401A601A501A701A801063081009818F6
:1000600039288C1E2F281A08A4000F30A4053D2023
:100070002F28A50A181218162F282408043C031C40
:1000800008004420A6000800240882070034013438
:100090000234033404340B1D51280B115520870002
:1000A00061285B20063081000900220882070134A4
:1000B000023404340834A20A043022060319A201CF
:1000C0000800260882076828712889289E28B028F9
:1000D00083160313833081008312FF30880085006C
:1000E0005128831603138730810083127F208800F4
:1000F0008500A30A083023060319A3015128230809
:10010000820701340234043408341034203440347B
:100110008034831603138330810083122208820700
:1001200094289928992894289F308500F9308800D0
:100130005128093085009030880051288316031318
:100140008730810083127F208800850003302206DB
:10015000031D5128A30A083023060319A3015128BF
:1001600083160313833081008312033022060319A0
:10017000A80ABD20880085005128083028060319E8
:0E018000A8010319A709FF30271C0030080052
:02400E00F42F8D
:02401000FF3F70
:00000001FF
