:020000040000FA
:020000000528D1
:040002000034003492
:080008001F2883160313870172
:1000100088018501A0308B0007308100831603170B
:100020008801831603178901831203138501870151
:100030008801A001A1010630810000001D280B1DD0
:1000400032280B11352087003B2088008500A00A4C
:1000500004302006031D3228A001A10A0830210621
:100060000319A1010630810009002008820701342C
:100070000234043408342108820701340234043481
:0A008000083410342034403480347A
:02400E00F42F8D
:02401000FF3F70
:00000001FF
