:020000040000FA
:020000000528D1
:040002000034003492
:080008001E2883160313870173
:1000100088018501A0308B00023081008316031710
:100020008801831603178901831203138501870151
:100030008801A0010630810000001C280B1D272824
:100040000B114A2087002E20442006308100090031
:1000500020088207003405340A340F342820820730
:100060009F308500F9308800080009308500903005
:1000700088000800093085009030880008009F3013
:100080008500F93088000800A00A04302006031912
:10009000A001080020088207013402340434083427
:02400E00F42F8D
:02401000FF3F70
:00000001FF
